:100000000C94C6050C940D060C940D060C940D066C
:100010000C940D060C940D060C940D060C940D0614
:100020000C940D060C940D060C94EA270C94BC2835
:100030000C94F2190C940D060C940D060C940D06FC
:100040000C940D060C940D060C940D060C940D06E4
:100050000C940D060C944B1A0C940D060C940D0682
:100060000C940D060C940D060C940D060C940D06C4
:100070000C940D060C940D060C940D060C940D06B4
:100080000C940D060C940D060C940D060C940D06A4
:100090000C940D060C940D060C940D060C940D0694
:1000A0000C940D060C940D060C940D06C40FC40F91
:1000B000F60FF60F43106110821182116C100111BE
:1000C000121112117211821182117B11221222124D
:1000D000341234122B12341234123412221222121D
:1000E000301234123412301229295029482A50294A
:1000F000482A9C29BF29482A162A252A04000500D7
:100100000600070044454255473A2064697361621E
:100110006C65642E0A0044454255473A20656E617D
:10012000626C65642E0A000A0025303862003A20AD
:100130000025303258000A722F63203031323334B8
:100140003536370A000A002530325820006B6579B1
:10015000626F6172645F7265706F72743A20000A38
:100160000025303258006B6579626F6172645F738D
:1001700065745F6C65643A2000290A002575002FBC
:10018000002575005D2800256400200025640020FE
:100190000025640020002564007C002530325800D2
:1001A0006D6F7573656B6579205B62746E7C78200A
:1001B00079207620685D287265702F61636C293A1A
:1001C000205B006D6B5F776865656C5F74696D655A
:1001D0005F746F5F6D6178203D2025640A006D6B50
:1001E0005F776865656C5F6D61785F737065656486
:1001F000203D2025640A006D6B5F74696D655F7436
:100200006F5F6D6178203D2025640A006D6B5F6D26
:1002100061785F7370656564203D2025640A006D18
:100220006B5F696E74657276616C203D2025640A8F
:10023000006D6B5F64656C6179203D2025640A0068
:100240006D6B5F776865656C5F74696D655F746F12
:100250005F6D6178203D2025640A006D6B5F7768D3
:1002600065656C5F6D61785F7370656564203D20C6
:1002700025640A006D6B5F74696D655F746F5F6DF7
:100280006178203D2025640A006D6B5F6D61785FA9
:100290007370656564203D2025640A006D6B5F699D
:1002A0006E74657276616C203D2025640A006D6B6A
:1002B0005F64656C6179203D2025640A000A002591
:1002C0007500363A20776865656C5F74696D655FA7
:1002D000746F5F6D61783A20000A00257500353A29
:1002E00020776865656C5F6D61785F7370656564C4
:1002F0003A20000A00257500343A2074696D655F64
:10030000746F5F6D61783A20000A00257500333AFA
:10031000206D61785F73706565643A20000A00257E
:100320007500323A20696E74657276616C286D735F
:10033000293A20000A00257500313A2064656C6175
:1003400079282A31306D73293A20000A092D205668
:10035000616C756573202D0A004D3E004D25643E8D
:1003600020003F007365742064656661756C740AD3
:1003700000433E200077686572652064656C746197
:100380003A20637572736F723D25642C207768651F
:10039000656C3D25640A53656520687474703A2F56
:1003A0002F656E2E77696B6970656469612E6F7257
:1003B000672F77696B692F4D6F7573655F6B657913
:1003C000730A000A092D204D6F7573656B657920DE
:1003D0002D0A4553432F713A09717569740A313AF0
:1003E0000964656C6179282A31306D73290A323AC3
:1003F00009696E74657276616C286D73290A333AE7
:10040000096D61785F73706565640A343A097469CF
:100410006D655F746F5F6D61780A353A097768655D
:10042000656C5F6D61785F73706565640A363A0963
:10043000776865656C5F74696D655F746F5F6D612A
:10044000780A0A703A097072696E742076616C7568
:1004500065730A643A097365742064656661756C36
:1004600074730A75703A092B310A646F776E3A0912
:100470002D310A706775703A092B31300A70676444
:100480006F776E3A092D31300A0A73706565642002
:100490003D2064656C7461202A206D61785F737003
:1004A000656564202A2028726570656174202F209C
:1004B00074696D655F746F5F6D6178290A003F0034
:1004C0004D3E2000433E20004C25640A0074696DB7
:1004D00065725F72656164333228293A20253034B1
:1004E0006C580A006B6579626F6172645F69646C55
:1004F000653A2025580A006B6579626F6172645F06
:1005000070726F746F636F6C3A2025580A00686FC1
:1005100073745F6B6579626F6172645F6C6564733D
:1005200028293A2025580A000A092D20537461749D
:100530007573202D0A004743433A20352E342E3060
:10054000204156522D4C4942433A20322E302E3013
:10055000204156525F415243483A20617672350A33
:10056000004F5054494F4E533A204C554641204D70
:100570004F5553454B45592045585452414B4559C9
:1005800020434F4E534F4C4520434F4D4D414E4419
:1005900020343039360A004255494C443A20223141
:1005A000303233393022202830343A31333A313244
:1005B000204465632020362032303230290A00562C
:1005C00049443A20307842433432284269616363B7
:1005D0006F343229205049443A203078303030325C
:1005E000286D656973686929205645523A2030782C
:1005F000303030310A000A092D2056657273696F58
:100600006E202D0A000A092D20436F6E736F6C65F2
:10061000202D0A4553432F713A09717569740A6D8B
:100620003A096D6F7573656B65790A000A092D20AB
:100630004D61676963202D0A443A09446562756714
:10064000204D65737361676520546F67676C650A39
:10065000583A094D61747269782044656275672063
:100660004D6F646520546F67676C65202D2053685B
:100670006F77206B65797072657373657320696E2F
:10068000206D617472697820677269640A4B3A0957
:100690004B6579626F6172642044656275672054AE
:1006A0006F67676C65202D2053686F77206B6579C5
:1006B0007072657373207265706F72740A4D3A09B7
:1006C0004465627567204D6F75736520546F676769
:1006D0006C650A563A0956657273696F6E0A533A29
:1006E000095374617475730A433A094163746976F6
:1006F00061746520436F6E736F6C65204D6F646528
:100700000A46312D4631303A0953776974636820BF
:10071000746F204C6179657220302D392028463164
:1007200030203D204C30290A302D393A0953776961
:1007300074636820746F204C6179657220302D39A4
:100740000A47524156453A095377697463682074E1
:100750006F204C6179657220302028616C7465725D
:100760006E617465290A423A094A756D7020746F8A
:1007700020426F6F746C6F616465720A4553433A2F
:10078000094A756D7020746F20426F6F746C6F61D1
:100790006465722028616C7465726E617465290AE3
:1007A000453A095072696E7420454550524F4D20AC
:1007B00053657474696E67730A4253504143453AF6
:1007C00009436C65617220454550524F4D0A000A3D
:1007D000002575002E6E6B726F3A20000A00257599
:1007E000002E737761705F6261636B736C61736815
:1007F0005F6261636B73706163653A20000A002574
:1008000075002E737761705F67726176655F6573DF
:10081000633A20000A002575002E6E6F5F677569C8
:100820003A20000A002575002E737761705F7261AF
:100830006C745F726775693A20000A002575002E96
:10084000737761705F6C616C745F6C6775693A2077
:10085000000A002575002E737761705F7263746CF7
:100860005F726775693A20000A002575002E73775C
:1008700061705F6C63746C5F6C6775693A20000A25
:10088000002575002E636170736C6F636B5F746F0E
:100890005F636F6E74726F6C3A20000A00257500FA
:1008A0002E737761705F636F6E74726F6C5F6361DC
:1008B00070736C6F636B3A20000A00253032580069
:1008C0006B65796D61705F636F6E6669672E7261CB
:1008D000773A20000A002575002E6D6F7573653A12
:1008E00020000A002575002E6B6579626F617264C5
:1008F0003A20000A002575002E6D61747269783AFD
:1009000020000A002575002E656E61626C653A2034
:10091000000A00253032580064656275675F636FB6
:100920006E6669672E7261773A20000A00257500AD
:1009300064656661756C745F6C617965723A2000FC
:100940003F000A6D6F7573653A206F66660A000A8C
:100950006D6F7573653A206F6E0A000A6B65796278
:100960006F6172643A206F66660A000A6B6579628D
:100970006F6172643A206F6E0A000A6D6174726969
:10098000783A206F66660A000A6D61747269783A77
:10099000206F6E0A000A64656275673A206F6666AA
:1009A0000A000A64656275673A206F6E0A000A0AD7
:1009B0004A756D70696E6720746F20626F6F746C1A
:1009C0006F616465722E2E2E2000433E2000436C22
:1009D000656172696E6720454550524F4D0A00654A
:1009E00065636F6E6669673A0A005B735D004B650D
:1009F00079626F6172642073746172742E0A005B95
:100A0000575D005B535D005B525D005B445D005BC6
:100A1000435D000E036D00650069007300680069A6
:100A20000000001203420069006100630063006F70
:100A3000003400320000000403090409025B0003D3
:100A40000100A0FA090400000103010100092111BD
:100A50000100012240000705810308000A09040182
:100A6000000103000000092111010001228100079B
:100A700005820320000A09040200020300000009A5
:100A80002111010001222200070583032000010734
:100A9000050303200001120110010000000842BC00
:100AA00002000100010200010631FF0974A10109E1
:100AB00075150026FF00952075088102097615003E
:100AC00026FF00952075089102C005010902A101C9
:100AD00085020901A1000509190129051500250153
:100AE00095057501810295017503810105010930A4
:100AF00009311581257F9502750881060938158110
:100B0000257F950175088106050C0A380215812597
:100B10007F950175088106C0C005010980A1018586
:100B20000319012AB700150126B700950175108138
:100B300000C0050C0901A101850419012AA00215B4
:100B40000126A002950175108100C005010906A1CA
:100B500001050719E029E7150025019508750181B0
:100B6000029501750881010507190029FF15002666
:100B7000FF009506750881000508190129059505EE
:100B800075019102950175039101C00011241FBEEA
:100B9000CFEFDAE0DEBFCDBF04B603FE27C0809101
:100BA0002B0290912C02A0912D02B0912E02873041
:100BB000904BA740B04BD1F410922B0210922C0214
:100BC00010922D0210922E0214BE84B7877F84BF2C
:100BD0000FB6F894A89580916000886180936000BA
:100BE000109260000FBEE0E0F8E3099511E0A0E08C
:100BF000B1E0E2EFF5E502C005900D92A439B1072E
:100C0000D9F722E0A4E9B1E001C01D92AB32B207EE
:100C1000E1F70E9421250C94F72A0C940000FF9321
:100C2000EF93E0919401F0919501309709F00995C7
:100C3000EF91FF910895FC018591803011F0EFDF75
:100C4000FBCF0895FF27E0E230E247FF0CC041955B
:100C500097FF09C0EDE26095709580959095611DB4
:100C6000711D811D911D27FF02C0219530E350E2C7
:100C7000AA27660F771F881F991FAA1FA41710F0B5
:100C8000A41B63955A95A9F7AA3008F0A95FA05D47
:100C9000AF93F395611571058105910541F7ED322B
:100CA00011F4EF93F395F21718F43F93F395FBCFFC
:100CB0008F91B5DFFA95E1F70895E991F991859162
:100CC000803021F0853219F0AADFF9CF089520E0B5
:100CD000E89455915532C1F3503311F4689455910D
:100CE0005A3348F4505390F3220F022E220F220F52
:100CF000200D250FF4CF0EF421958991999153364B
:100D000019F3533729F1533559F1BC018827992735
:100D1000E8945C3621F48991999168945591543600
:100D200039F446EF7EF077FF0DC08FEF9FEF0AC0DA
:100D300055374AE039F0583540E121F0523642E06B
:100D400009F00895FF93EF937DDFEF91FF91B7CF07
:100D5000FF93EF93FC0181918030B9F360DFFBCF0B
:100D6000FF93EF9368DFF1CFDF93CF93CDB7DEB77B
:100D70002596A3DFCF91DF9108950C94D4090C94AC
:100D8000D2090C94C7060C94850781E0089581E090
:100D9000089508950C94C9061F93CF93DF9300D054
:100DA00000D01F92CDB7DEB749835A836B83309151
:100DB000A50189819A81311114C0662359F022233B
:100DC00049F00E945C17182F682F89819A810E9430
:100DD000071703C00E943117182F69817A81812F6C
:100DE00004C00E945C1769817A810F900F900F9068
:100DF0000F900F90DF91CF911F910C949707FC01FA
:100E0000262F408151816281738184810C94CC06AC
:100E1000CF93DF93EC0160E00E94FF06BE01DF91FB
:100E2000CF910C94CA060E94A518811102C00E949D
:100E30004C190C94BD060C94BF0608950E94101224
:100E40000E941D072FEF84E39CE0215080409040DA
:100E5000E1F700C000000C94711A0F931F93CF9319
:100E6000DF93EC0161E00E94FF068C01BE010E944D
:100E7000C106882309F442C0BE01C8010E94170BB5
:100E80008823E1F1BE01C8010E94690B8823B1F1FA
:100E9000BE01C8010E94940C882381F18A818823B5
:100EA00031F101308CE5180751F00F3D8CE5180742
:100EB000D9F001151C45D9F40E941E071FC080916E
:100EC000F801C82FC095C170C0FB80F98093F8016C
:100ED000CC2329F086E191E00E941B060FC084E03C
:100EE00091E00E941B060BC00E944C1907C0CE0166
:100EF000DF91CF911F910F910C94C506C0E08C2F0C
:100F0000DF91CF911F910F910895089581E0089589
:100F10000C948607CF93C82F0E94C3068C2F0E9483
:100F20008807CF91089580E090E008950895E72F15
:100F3000F0E0E80FF11DEE0FFF1FEE0FFF1FE60FB1
:100F4000F11DEE0FFF1FE450FF4F8591949108951E
:100F5000880F991FFC01E95DFE4F859194910895DA
:100F6000CF93DF930E9497070E94C808EC01811578
:100F7000904508F041C0C11580E4D80708F0D1C001
:100F8000C83ED10510F5C03ED10508F0FDC0C83AF5
:100F9000D10578F4C53AD10508F0A2C0C130D10519
:100FA00009F4F2C008F4EEC0C430D10508F0ECC07A
:100FB000E9C0CF3BD10508F49BC0C03CD10508F483
:100FC000E1C0CE01805C91099EC0C11590E2D907B5
:100FD00058F4C11521E0D20708F0D6C0C03FD105B2
:100FE00008F4D0C0D065D0C0C11580E3D80708F0A0
:100FF0008EC0CE019F7087C0C11595E5D90708F056
:1010000043C0C11524E5D20708F0A2C0C11582E58E
:10101000D80708F5C11591E5D90708F085C0CE01BC
:1010200074E0969587957A95E1F783709C2F93707D
:1010300021E030E002C0220F331F9A95E2F73C68AE
:10104000382BCF70C695C69580E2C89FE001112469
:10105000C22BD32B99C09E01237033278C2F8695EA
:101060008695C115D34508F064C0C1E0D0E002C048
:10107000CC0FDD1F2A95E2F720E2829FC0011124E8
:10108000C82BD92BDC6880C0C11529E5D207A0F494
:10109000C11588E5D80708F060C0C11596E5D907E5
:1010A00008F070C08C2F0E945C098F71C82FD0E0AF
:1010B000DC2FCC27D06268C0C1152AE5D20708F41E
:1010C00051C0CE0190568115904208F05BC08D2F23
:1010D0008F710E945C09DD27D0628F71D82B54C0BC
:1010E000C55AD0E0CD5BDE4FC881D0E0D0644CC0A3
:1010F000C85AD0E0CC0FDD1FCB5EDE4F0990D881FF
:10110000C02DD46441C00E94A807EC013DC0CE01AF
:101110009927D3FF03C0EC01D86C36C0EC01D06C2A
:1011200033C0DF70D06A30C0DC2FCC27C16FD06AEB
:101130002BC0C1E0D0E002C0CC0FDD1F2A95E2F742
:1011400020E2829FC0011124C82BD92BDA681CC071
:10115000DC2FCC27C46FD06A17C0DC2FCC27C06F20
:10116000D06A12C08C2F8F700E945C0994E0D695D3
:10117000C7959A95E1F7CF70D0E0DC2FCC27D069E6
:10118000C82B02C0C0E0D0E0CE01DF91CF9108951E
:101190008238910569F1B0F48133910509F46DC08D
:1011A00048F48932910509F463C08A32910509F443
:1011B00069C008958533910509F455C089339105B7
:1011C000B9F00895833E910569F138F4803E9105A8
:1011D000B1F0823E910509F10895863E9105A9F18D
:1011E000873E9105B9F1843E910509F064C023C0A2
:1011F00020911C0220FD4FC021FD4DC0089580911B
:101200001C0280FD44C080911D0280FF44C080917B
:101210001C0284FD42C083EE4DC080911C0282FFFF
:1012200038C0F5CF80911C0282FD33C080911D0231
:1012300080FD31C0ECCF80911D0281FF32C08091D2
:101240001C0284FD2AC087EE35C080911C0283FFFA
:1012500026C0F5CF80911C0283FD21C080911D0224
:1012600081FD1FC0ECCF80911C0285FD1CC01DC0FC
:1012700080911C0285FD19C016C080911C0286FD5C
:1012800016C017C080911C0286FD13C010C089E3F0
:1012900011C082EE0FC080EE0DC080E00BC086EE64
:1012A00009C084EE07C089E205C085E303C08AE275
:1012B00001C081E390E0089590911C0292FF0DC05F
:1012C000282F2871283019F4877F846006C0282FC2
:1012D0002471243011F48B7F886093FF0DC0282F78
:1012E0002871283119F4877E846106C0282F247163
:1012F000243111F48B7E886120911D0220FF0DC0E6
:10130000382F3871383019F4877F816006C0382F44
:101310003171313011F48E7F886021FF0DC0282F8C
:101320002871283119F4877E816106C0282F217128
:10133000213111F48E7E886194FD877E0895E82F17
:10134000F0E0E95EFD4F8081089586E391E00E9420
:101350001B061F921F9281E391E09F938F930E943F
:10136000B4068EE291E00E941B06809117020E9453
:1013700093181F928F9389E291E09F938F930E941D
:10138000B4068DB79EB708960FB6F8949EBF0FBEF1
:101390008DBF87E291E00C941B0680EA8A95F1F7F5
:1013A000089508950C94D1090C94D109F894E82F6C
:1013B000E295EF70F0E031A1282F2F7081E090E0EE
:1013C00001C0880F2A95EAF7982F9095932391A34F
:1013D00092A1892B82A37894089585E30E94D6096F
:1013E00081E30E94D60983E30E94D60982E30E942A
:1013F000D60986E30E94D6091092160210921702AF
:1014000081E00E94480A0C941307CF93F894259A20
:101410002D9878940E94CD09A6E4B1E020E030E058
:10142000C0E051E04D91E42FE295EF70F0E080A133
:1014300090E04F7002C0959587954A95E2F780FD40
:1014400007C0852F022E01C0880F0A94EAF701C059
:1014500080E0C82B2F5F3F4F2430310519F785E31B
:101460000E94D60980911602C81721F0C093160277
:10147000C1E001C0C0E02C2F41E067E172E086E1ED
:1014800092E00E94490A0E941B078C2FCF91089579
:101490000895FF920F931F93CF93DF938C01F62E45
:1014A000D72FC42F222349F081E0809398010E9416
:1014B000241A909397018093960180919801882334
:1014C000C1F080919601909197010E943C1A069775
:1014D00080F0EF2DFD2FD8014C2F50E0CD01801B67
:1014E000910B841795071CF48D918193F7CF10927F
:1014F0009801DF91CF911F910F91FF900895AF92C6
:10150000BF92CF92DF92EF92FF920F931F93CF93F0
:10151000DF937C015B01C42FD22FFC0182818823E1
:10152000F9F040939B010E94241A90939A018093B2
:10153000990180E28C0F883008F06EC0C77081E09E
:1015400001C0880FCA95EAF7DF91CF911F910F91E3
:10155000FF90EF90DF90CF90BF90AF900C94800FF2
:1015600080919B01481335C08091990190919A0117
:101570000E943C1A6C01B701C5010E94C914C8162B
:10158000D90638F510E21D0FCD17B9F080E28C0FA7
:10159000883040F4C77081E001C0880FCA95EAF72F
:1015A0000E94870F183058F581E09D2F977001C079
:1015B000880F9A95EAF70E94800F802F0E946D0F86
:1015C000183050F5D77081E001C0880FDA95EAF73E
:1015D0000AC080E28C0F8830F8F4C77081E001C047
:1015E000880FCA95EAF7DF91CF911F910F91FF9075
:1015F000EF90DF90CF90BF90AF900C94870F802F2B
:10160000DF91CF911F910F91FF90EF90DF90CF90DE
:10161000BF90AF900C946D0FDF91CF911F910F9100
:10162000FF90EF90DF90CF90BF90AF9008950F9311
:101630009C01CB01243F4CE5340731F188F4293D6E
:10164000FCE53F07D9F02A3D4CE5340779F1283D08
:101650003C45A9F506E221EE41EE68ED7CE52BC0A4
:10166000263FFCE53F07E1F0A8F0273F3C4539F570
:1016700007E225EE46EE67EF7CE51DC007E225EEAA
:1016800045EE69ED7CE517C006E221EE40EE64EF21
:101690007CE511C007E225EE44EE65EF7CE50BC06A
:1016A00006E221EE42EE66EF7CE505C008E221E0AD
:1016B00045EE6AED7CE50E947F0A80E008C0FC01EF
:1016C0008281882319F010929B0101C081E00F9163
:1016D0000895CF93DF93EC01FB018281882309F405
:1016E0001FC1C230FCE5DF0708F41BC1C6319CE511
:1016F000D90738F09E012B5F3C452930310508F0B1
:1017000010C10E94B81890931D0280931C02C03132
:10171000ECE5DE0709F4C3C008F041C0C8308CE531
:10172000D80709F49AC0F0F4C430ECE5DE0709F4F8
:1017300087C068F4C2308CE5D80709F477C0C3309D
:10174000DC4509F0E3C080911C02826076C0C6309F
:10175000ECE5DE0709F46EC008F07BC080911C0246
:1017600088606BC0CC308CE5D80709F485C068F47C
:10177000CA30ECE5DE0709F474C008F079C00E94B5
:10178000101280911C02806858C0CE308CE5D807BA
:1017900009F476C008F07FC080911C028BC0CC3F5A
:1017A000ECE5DE0709F44FC018F5C3318CE5D80726
:1017B00009F47DC078F4C131ECE5DE0709F473C0AB
:1017C000C231DC4509F0A2C00E94101280911C02B7
:1017D0008F7733C0C5318CE5D80709F472C008F49F
:1017E00086C0CB3FDC4509F091C080911D023EC010
:1017F000C115FDE5DF0709F45FC058F4CE3F9CE555
:10180000D90709F444C008F43FC080911D028260EA
:101810002DC0C230FDE5DF0709F475C008F45DC0D6
:10182000C330DD4509F072C080E06EC080911C02BB
:10183000816003C080911C02806180931C0266C09D
:1018400080911C0211C080911D02826080931D0254
:101850005DC080911C028062F0CF80911C02806488
:10186000ECCF80911C0288608460E7CF8160EECF6E
:1018700080911C028E7FE1CF80911C028D7FDDCF95
:1018800080911C02877FD9CF80911D0218C0809162
:101890001D028D7FDBCF80911C028F7ECECF809189
:1018A0001C028F7DCACF80911C028F7BC6CF809196
:1018B0001C02877F8B7FC1CF80911D028D7F8E7F21
:1018C000C5CF80911C0282FB222720F991E092274C
:1018D00090FB82F990FB83F9B0CF80911D02982F85
:1018E000909591708E7F892B90FB81F9AFCF0E94EC
:1018F000101280911C0287FB222720F991E0922789
:1019000090FB87F99ACF81E00E944E1980911C02CA
:1019100090911D020E94C9180E94101280E001C01F
:1019200081E0DF91CF910895CF93DF9386319C457D
:1019300041F5EB010E94DD17982F8A81209100016B
:1019400030910101882379F09A7A81E009F480E0EE
:1019500080939C01911102C069E201C065E3C90155
:101960000E9495190AC080919C01811102C069E210
:1019700001C065E3C9010E9497190E942B1880E0FD
:1019800001C081E0DF91CF9108959093A2018093EF
:10199000A1010895E091A101F091A201309721F0F9
:1019A0000190F081E02D099480E00895EF92FF927C
:1019B0000F931F93CF93DF93E091A101F091A201C8
:1019C0003097B1F18C010280F381E02D099580916F
:1019D000F80182FF2DC080FF04C08DE491E00E94D9
:1019E0001B06E80118E087E4E82E81E0F82E8091DC
:1019F000F80180FF0BC088811F928F93FF92EF92B6
:101A00000E94B4060F900F900F900F9011502196E6
:101A10001111EDCF8091F80180FF0AC085E491E0BB
:101A2000DF91CF911F910F91FF90EF900C941B06C7
:101A3000DF91CF911F910F91FF90EF900895E0916A
:101A4000A101F091A201309739F022E0DC012C9342
:101A50000480F581E02D0994089520919F01309133
:101A6000A0012817390771F09093A00180939F017E
:101A7000E091A101F091A201309721F00680F78159
:101A8000E02D0994089520919D0130919E01281721
:101A9000390771F090939E0180939D01E091A1011F
:101AA000F091A201309721F00084F185E02D099496
:101AB000089585B7806885BF85B7806885BF08951C
:101AC00081E008950C94600D08950C94640D0C94BD
:101AD000640D0C94670D0C94640D0C946B0D0C94B8
:101AE000640D0E94590D0E946F0D0C946D0D0E94A3
:101AF0001B1A0E94ED090E94821A0C94690DCF9363
:101B0000C82F8091F80182FF1EC080FF04C086E6C6
:101B100091E00E941B068091F80180FF0CC01F928B
:101B2000CF9381E691E09F938F930E94B4060F902C
:101B30000F900F900F908091F80180FF04C08FE507
:101B400091E00E941B068C2FCF910C948A07FF9284
:101B50000F931F93CF93DF93CDB7DEB72A970FB6BE
:101B6000F894DEBF0FBECDBF0E94650D0E94640DCC
:101B70000E94050A0E94620D882379F180E00E948C
:101B80009F09082FF090A401F82639F18091F801FF
:101B900081FD0E94A50980E011E09F2D9123C9F0ED
:101BA0008E831F82012381E009F480E088870E94F0
:101BB000241A8160782F9A8789874E815F81688592
:101BC0008A850E94220E8091A40118271093A401F7
:101BD00014C08F5F110F843001F78FEF89838A83E0
:101BE0001B820E94241A8160782F9D838C834981F7
:101BF0005A816B818D810E94220E0E94B31C0E942B
:101C0000CA0C9091A301891789F00E94CA0C809395
:101C1000A3012A960FB6F894DEBF0FBECDBFDF91A9
:101C2000CF911F910F91FF900C947F0D2A960FB6C4
:101C3000F894DEBF0FBECDBFDF91CF911F910F9102
:101C4000FF900895CF93DF93CDB7DEB72B970FB6F4
:101C5000F894DEBF0FBECDBF4F83588769877A8760
:101C60008B87DE01119686E0FD0111928A95E9F7D6
:101C700085E0FE01379601900D928A95E1F7498142
:101C80005A816B817C818D819E810E94CC142B9620
:101C90000FB6F894DEBF0FBECDBFDF91CF91089590
:101CA000FC01808191810E949E170895CF93882323
:101CB00009F4A9C0C82F8238C1F40E94CA0C81FD62
:101CC000A2C069E380910001909101010E949519E1
:101CD0000E942B182FEF81EE94E02150804090401D
:101CE000E1F700C0000069E319C0833801F50E94E4
:101CF000CA0C80FD88C063E58091000190910101CC
:101D00000E9495190E942B182FEF81EE94E021502C
:101D100080409040E1F700C0000063E58091000141
:101D2000909101010E949719CF910C942B1884383F
:101D3000C1F40E94CA0C82FD66C067E48091000174
:101D4000909101010E9495190E942B182FEF81EEAE
:101D500094E0215080409040E1F700C0000067E42B
:101D6000DDCF8CEF8C0F813AF8F48C2F0E94B521D7
:101D7000811149C06C2F80910001909101010E9456
:101D80005F19882349F06C2F809100019091010127
:101D90000E9497190E942B186C2F8091000190913E
:101DA00001010E949519C0CF80E28C0F883048F461
:101DB000C77081E001C0880FCA95EAF70E94E0175A
:101DC000B3CFEBE5EC0FE33040F4F0E0E858FE4F22
:101DD000808190E0CF910C942D0DE8E5EC0FE73178
:101DE00050F4F0E0EE0FFF1FE65BFE4F8081918123
:101DF000CF910C94430DC03F30F08C2F0E94261BD6
:101E0000CF910C94131CCF910895882309F464C0DA
:101E1000823879F40E94CA0C81FF5EC069E3809128
:101E20000001909101010E9495190E942B1869E30D
:101E300010C08338B1F40E94CA0C80FF4DC063E526
:101E400080910001909101010E9495190E942B1828
:101E500063E580910001909101010E9497190C9413
:101E60002B18843879F40E94CA0C82FF35C067E4CD
:101E700080910001909101010E9495190E942B18F8
:101E800067E4E7CF9CEF980F913A10F4682FE1CF09
:101E900090E2980F983050F4877091E001C0990F4C
:101EA0008A95EAF7892F0E94E617D9CF9BE5980F0C
:101EB000933020F480E090E00C942D0D98E5980F7D
:101EC000973120F480E090E00C94430D803F20F0A7
:101ED0000E948E1B0C94131C0895CF93C82F0E9450
:101EE000560EC93349F42FEF87EE93E0215080401E
:101EF0009040E1F700C000008C2FCF910C94050FAB
:101F0000882321F00E94E0170C942B180895882351
:101F100021F00E94E6170C942B180895CF92DF92BF
:101F2000EF92FF920F931F93CF93DF937C01062FC5
:101F3000C72FFC01158112951F70D281D1110E940B
:101F4000FD170E94D617882399F0DD2389F08C2F86
:101F5000807F803421F080E2800F883048F082E07A
:101F60000E9475180E94D61791E0D82ED92601C07C
:101F7000D12CCC2EC2948FE0C8228C2D90E0FC0195
:101F8000EA5AFF4F0C949B2A8C2F807FCF708823B6
:101F900011F0C295C07FDD2399F0CC2309F48DC1E7
:101FA00080E2800F883010F0011104C08C2F0E9455
:101FB000E01703C08C2F0E94F0170E942B187DC1E0
:101FC000802F0E94050FCC2309F49CC180E2800F72
:101FD000883010F0011104C08C2F0E94E61703C056
:101FE0008C2F0E94F6170E942B188CC18C2F807F9B
:101FF000CF70803211F0C295C07F002319F00130FC
:10200000C9F022C0DD2371F0112341F0113031F409
:102010000E9410188C2B0E94181874C10E9410186E
:102020008C2B1DC0112319F0113009F46BC10E94D3
:10203000211825C0DD2321F0163008F063C10EC041
:10204000153008F05FC11BC0DD2361F0112331F0B2
:10205000F701858180FF31C18F7085838C2F0E94AD
:10206000800F50C1112359F0093309F037C1FFEF38
:1020700027EE83E0F15020408040E1F72DC18C2F06
:102080000E94870F3FC18C2F86958695837019F02B
:10209000813061F037C1DD2321F0802F9C2F9370B8
:1020A00002C080E090E00E942D0D34C1DD2321F0BC
:1020B000802F9C2F937002C080E090E00E94430D1F
:1020C00029C1802FDD2319F00E94261B02C00E9427
:1020D0008E1B0E94131C1EC18C2F837009F045C0FB
:1020E000D11114C1402F429546954770440F440FBB
:1020F000602F6F70862F90E0A0E0B0E0042E04C047
:10210000880F991FAA1FBB1F0A94D2F704FF10C0A3
:102110000FE010E020E030E004C0000F111F221F8C
:10212000331F4A95D2F7009510952095309503C03E
:1021300000E010E09801C695C695C370BC01CD01C2
:10214000602B712B822B932BC23049F058F4C13095
:1021500019F00E941D16DAC00E940B16D7C00E940B
:102160002F16D4C00E940916D1C0DD2319F08C2F80
:10217000817001C08695882309F4C8C0402F42951C
:1021800046954770440F440F602F6F70862F90E084
:10219000A0E0B0E0042E04C0880F991FAA1FBB1F47
:1021A0000A94D2F704FF10C00FE010E020E030E006
:1021B00004C0000F111F221F331F4A95D2F700954C
:1021C00010952095309503C000E010E09801C69569
:1021D000C695C370BC01CD01602B712B822B932B54
:1021E000C23049F058F4C13019F00E94E2168EC096
:1021F0000E94D0168BC00E94F41688C00E9443161D
:1022000085C0CF70DD2339F08C2F0E946916802F96
:102210000E94800F7BC0802F0E94870F8C2F0E940E
:102220008A1674C0023F01F128F4003F41F0013FDB
:10223000A1F03FC0033FF9F0043F39F13AC0DD237C
:1022400041F0153008F05EC08C2F8F710E94AF16E0
:1022500059C0163008F056C0F7CFDD2339F08C2F67
:102260008F710E9469164EC0DD23C9F38C2F8F71C8
:102270000E948A1647C0DD2329F08C2F8F710E949F
:10228000541640C00E944F163DC0DD2349F0CF7167
:102290008C2F0E94691663E08C2F0E94601832C058
:1022A00081E00E947518123068F182E00E94751872
:1022B00029C0DD2331F0112391F2802F0E94560EA8
:1022C00021C0112399F2093349F49FEFE7EEF3E0BF
:1022D0009150E040F040E1F700C00000802F0E94E4
:1022E000050F10C04C2F4F70602FC7010E9493073D
:1022F0000E947A150FC04C2F4F70602FC7010E94AB
:10230000960708C088EF8C0D843020F40E94CA0C18
:102310000E948A07DD20C9F00E94D21780FD15C0F7
:10232000F70112820E94CC170E946916C7010E9411
:10233000C6110E94CC17DF91CF911F910F91FF9092
:10234000EF90DF90CF900C948A16DF91CF911F9180
:102350000F91FF90EF90DF90CF9008950F931F9310
:10236000CF93DF93EC01688179818A810E94A9175C
:102370008C010E9406170E94F715B801CE010E9439
:102380008E0FDF91CF911F910F910895CF93DF931F
:10239000EC01988189812B813C81232B31F08F3F87
:1023A00031F481E09F3F19F403C081E001C080E077
:1023B00080FD19C0CE010E942D0781110CC00E9422
:1023C000D617882381F08A81882369F082E0DF9123
:1023D000CF910C947518CE010E94AE11CE01DF9101
:1023E000CF910C940807DF91CF9108950E94FD17BB
:1023F0000E940D180E942B180E94C61D0E94131CDB
:1024000080E090E00E942D0D80E090E00C94430D60
:1024100080910001909101010E9499190C94F6118C
:102420000E94ED170C940812E92FE295EF704E2FE1
:1024300050E0FA013297EE30F105B0F4EA59FF4F5F
:102440000C949B2A803F91F018F4883E68F40EC0EB
:10245000843F51F40BC0883E48F0813F29F406C008
:1024600093FB882780F9089580E0089581E008951E
:102470000E949E170E9414120895CF93DF9300D0FC
:1024800000D01F92CDB7DEB70F900F900F900F9036
:102490000F90DF91CF910895CF93DF9300D000D0BC
:1024A00000D0CDB7DEB726960FB6F894DEBF0FBECC
:1024B000CDBFDF91CF9108951F93CF93DF93C0914C
:1024C000A60116E08091A701C81799F0D0E01C9FE3
:1024D000F0011D9FF00D1124E855FE4F4081518100
:1024E00062817381848195810E944C122196C7700C
:1024F000E9CFDF91CF911F9108954091D80150917C
:10250000D9016091DA017091DB018091DC01909139
:10251000DD010C944C120F931F93CF93DF938091A6
:10252000DD0182958F7009F05DC08091DA0188230A
:1025300009F458C08091A6011091A7016091D801BB
:102540007091D901C091DB01D091DC0191E06F3F26
:1025500009F090E0292F06E0811709F443C0209785
:1025600021F07F3F21F030E003C031E001C0322F85
:1025700090E030FD34C0089FF001099FF00D112458
:10258000DF01A855BE4F11963C911197371327C014
:102590003C91361324C012963C91129731111FC002
:1025A00013964D915C9114974C1B5D0B483C510563
:1025B000B0F48091DD018F7080618093DD01E3557F
:1025C000FE4F80818F708061808388ED91E00E9452
:1025D000C611DF91CF911F910F910C945C1201965F
:1025E0008770BACFDF91CF911F910F9108959F927D
:1025F000AF92BF92CF92DF92EF92FF920F931F9311
:10260000CF93DF93CDB7DEB761970FB6F894DEBFF7
:102610000FBECDBF8C0185E0F801DE011D96019053
:102620000D928A95E1F7F80140815181E280909105
:10263000D8016091D9012091DB013091DC01211595
:10264000310531F06F3F31F481E09F3F19F403C051
:1026500081E001C080E0F82FF1709F2E80FD46C11F
:10266000F801A380B48088EDC82E81E0D82EF090C8
:10267000DA01F501E21BF30BFF2009F4DFC08091C2
:10268000DD01E83CF10508F09BC0282F207F09F010
:1026900052C0561313C0491311C0FE2CE1100EC0D6
:1026A0008F7080618093DD010E947D12C6010E94BF
:1026B000C6118091DD01F801858358C1AB2831F046
:1026C0005F3F31F481E04F3F19F403C081E001C066
:1026D00080E080FD03C081E08E2502C080E090E0B4
:1026E000F82FF170FF2E80FF1CC08091A601209171
:1026F000A70136E0821709F417C190E0389FF00176
:10270000399FF00D1124E855FE4F6181561306C024
:102710006081461303C06281E61203C00196877090
:10272000E9CFFE2CEE2009F421C18091DD0181600A
:102730008093DD015AC0561306C0491304C0E1104E
:1027400002C0F8019FC04D875E878D859E850E94DF
:102750003812882379F1EE2069F12091DD01822F72
:1027600082958F7090E0029774F08091D8019091DB
:10277000D90198878F831986BB86AA862C87CE01BC
:1027800007960E94C61186E0F801A8EDB1E001901D
:102790000D928A95E1F70E948B120E947D120DC066
:1027A000561729F14D875E878D859E850E943812C8
:1027B00081112CC0C8010E94C611FF24F394D6C019
:1027C000282F207F69F77A2DB98AA88A6E2D8989EA
:1027D0000E943D1288ED91E00E94C61186E0F6014C
:1027E00011928A95E9F70E947D12F12CBFC049131E
:1027F000D9CFE110D7CFF8018583C8010E94C61157
:1028000086E0F60111928A95E9F7B0C0EE2091F2C8
:102810002091DD01822F82958F7090E002970CF459
:10282000B2CF8091D8019091D9019A8389831B827C
:10283000BD82AC822E83CE010196A3CFE83CF10588
:1028400008F047C0FE2CEE2009F4B4CF561330C078
:1028500049132EC02091DD0120FD21C0822F8295D9
:102860008F70482F50E041155105C9F0F8012583BC
:102870004F30510541F08F5F982F9295907F822FB6
:102880008F70892B8583C8010E94C61186E0F801EC
:10289000A8EDB1E001900D928A95E1F742C086E083
:1028A000F801A8EDB1E001900D928A95E1F75EC0C4
:1028B0004D875E878D859E850E943812811163CF7A
:1028C0008091DD0181608093DD01C8010E94C61105
:1028D0004DC07A2DB98AA88A6E2D89890E943D1231
:1028E00086E0F60111928A95E9F71BC0EE2009F403
:1028F00061CF4D875E878D859E850E943812F82EA8
:10290000882309F457CF86E0F801A8EDB1E00190E3
:102910000D928A95E1F788ED91E00E94500E0E9499
:102920008B120E947D1222C04D875E878D859E8509
:102930000E949E17292F22952F70223028F49F7015
:1029400039F0811105C00BC0243028F49F7049F480
:10295000805E883020F0C8010E94C6119F2CF92C9F
:1029600005C0F8019581907F99F7F9CF8F2D619679
:102970000FB6F894DEBF0FBECDBFDF91CF911F9190
:102980000F91FF90EF90DF90CF90BF90AF909F900E
:10299000089588EC90E008951F93CF93DF93CDB70F
:1029A000DEB72C970FB6F894DEBF0FBECDBF4F83B6
:1029B000588769877A878B879C87CE0107960E9404
:1029C000F7128823D1F09F8188852A853B85232BA8
:1029D00031F08F3F31F481E09F3F19F403C081E073
:1029E00001C080E080FD47C04F81588569857A85A8
:1029F0008B859C850E944C123EC086E0FE01379676
:102A0000DE01119601900D928A95E1F7FF81E8852C
:102A10006A857B856115710531F0EF3F31F481E006
:102A2000FF3F19F403C081E001C080E080FD23C0B6
:102A30002091A70130E0C901019687709927409144
:102A4000A60150E084179507F1F1F983EA837D83AD
:102A50006C8396E0929FD001939FB00D1124A855EE
:102A6000BE4FFE01319601900D929A95E1F7809349
:102A7000A7010E945C1216E08091A6019091A70127
:102A8000891771F1189FC001112488559E4F0E942B
:102A9000F712882329F1E091A6011E9FF00111246D
:102AA000E855FE4F40815181628173818481958117
:102AB0000E944C128091A60190E0019687709927A0
:102AC0008093A601D9CF0E9410121092A7011092F4
:102AD000A601E8EDF1E086E0DF011D928A95E9F7B5
:102AE0002C960FB6F894DEBF0FBECDBFDF91CF910D
:102AF0001F910895EF92FF920F931F93CF93DF934F
:102B00008C01892B09F46CC0F12CEE24E394E801CC
:102B10002196F8018491843740F4843008F051C044
:102B2000813081F0823019F15BC0853709F444C0EF
:102B3000A8F19CE7980F903708F052C08F770E9459
:102B4000050F41C00E5F1F4FFE01849190E2980F68
:102B5000983050F48770FE2D01C0FF0F8A95EAF778
:102B60008F2F0E94001814C00E94560E2DC00E5FB9
:102B70001F4FFE01849190E2980F983060F48770A7
:102B8000FE2D01C0FF0F8A95EAF78F2F0E940618CD
:102B90000E942B1819C00E94050F16C00E5F1F4F10
:102BA000FE01C491CC2381F08FE99FE00197F1F7FA
:102BB00000C00000C150F6CF0E5F1F4FFE01F49021
:102BC00003C00E94560E8E018F2D882309F49FCFDB
:102BD000EFE9FFE03197F1F700C000008150F5CF39
:102BE000DF91CF911F910F91FF90EF90089508957D
:102BF00008950C94F8150C94F9150E94FB15609338
:102C0000E7017093E8018093E9019093EA010C9445
:102C1000F6110C94FD150F931F930091E70110918D
:102C2000E8012091E9013091EA01602B712B822BA0
:102C3000932B1F910F910C94FD150F931F930091EF
:102C4000E7011091E8012091E9013091EA01602348
:102C50007123822393231F910F910C94FD150F93E1
:102C60001F930091E7011091E8012091E901309153
:102C7000EA0160277127822793271F910F910C94F7
:102C8000FD150C94F8150E9441166093E3017093B2
:102C9000E4018093E5019093E6010C94F61160E065
:102CA00070E0CB010C9443160F931F9341E050E06A
:102CB00060E070E08A019B0104C0000F111F221F19
:102CC000331F8A95D2F7C901B8011F910F910C9457
:102CD00043160F931F9341E050E060E070E004C0A2
:102CE000440F551F661F771F8A95D2F78091E30125
:102CF0009091E401A091E501B091E6018A019B0168
:102D0000082B192B2A2B3B2BC901B8011F910F91BE
:102D10000C9443160F931F9341E050E060E070E085
:102D200004C0440F551F661F771F8A95D2F7409540
:102D30005095609570958091E3019091E401A09188
:102D4000E501B091E6018A019B01082319232A239A
:102D50003B23C901B8011F910F910C9443160F93A7
:102D60001F9341E050E060E070E004C0440F551F45
:102D7000661F771F8A95D2F78091E3019091E40155
:102D8000A091E501B091E6018A019B01082719276E
:102D90002A273B27C901B8011F910F910C944316B4
:102DA0000F931F930091E3011091E4012091E5013D
:102DB0003091E601602B712B822B932B1F910F9189
:102DC0000C9443160F931F930091E3011091E401BB
:102DD0002091E5013091E601602371238223932342
:102DE0001F910F910C9443160F931F930091E301D1
:102DF0001091E4012091E5013091E60160277127EF
:102E0000822793271F910F910C9443160895990FD1
:102E1000990F890FE82FE695E695E695877051E0C2
:102E200001C0550F8A95EAF785E0E89FF00111246B
:102E3000E252FE4F20E030E070E04081CB01022EF4
:102E400002C0969587950A94E2F781708195842750
:102E50008523842781932F5F3F4F2530310569F704
:102E60000895990F990F890F682F66956695669555
:102E7000982F977085E0689FB001112440E050E0E2
:102E800080E0FB01E40FF51FE252FE4F208130E0AD
:102E9000092E02C0369527950A94E2F72170332750
:102EA000042E01C0220F0A94EAF7822B4F5F5F4F76
:102EB0004530510531F70895BF92CF92DF92EF92DE
:102EC000FF920F931F93CF93DF938C01C090E30188
:102ED000D090E401E090E501F090E6018091E701F7
:102EE0009091E801A091E901B091EA01C82AD92A9C
:102EF000EA2AFB2ACFE1D0E0D701C6010C2E04C09C
:102F0000B695A795979587950A94D2F780FD04C04A
:102F1000219790F7B12C07C0BC2EB8018C2F0E94CE
:102F2000B0070197A9F38B2DDF91CF911F910F91DE
:102F3000FF90EF90DF90CF90BF900895CF93DF93F5
:102F4000EC010E945C17BE010E94B007DF91CF9197
:102F500008951F93CF93DF93EB019091A5019923DF
:102F600021F0CB010E949E1713C0882349F0CB01AA
:102F70000E945C17182F682FCE010E94071704C00B
:102F8000CB010E943117182FBE01812F0E94B0077C
:102F9000DF91CF911F9108958091EB0185958595E3
:102FA000859508958091EB01877008959091EB01CC
:102FB000977081E009F480E008958091F701089509
:102FC0009091F701892B8093F70108958095909156
:102FD000F70189238093F70108951092F70108956E
:102FE0009091F601892B8093F60108958095909138
:102FF000F60189238093F60108951092F601089551
:103000009091F501892B8093F50108958095909119
:10301000F50189238093F50108951092F501089533
:103020008091EC01089508950C9413180C941418D1
:103030009091EC01981721F08093EC010C941618F4
:1030400008958091EC01882329F01092EC0180E032
:103050000C9416180895E0910001F09101018091FF
:10306000F7018083E0910001F0910101908180914E
:10307000F601892B8083E0910001F091010190819C
:103080008091F501892B80838091EC01882381F068
:10309000E0910001F09101019081892B8083809162
:1030A0000001909101010E94531981110E94211881
:1030B00080910001909101010C94D60C0C9413188E
:1030C00098E0899F90011124262B2093EB010E9408
:1030D00069168091EB018595859585950C945E1810
:1030E0001092EB0180E00C945E182091EB0180952A
:1030F00082238093EB01982F977079F430E0482F6A
:10310000082E000C550B2417350739F08595859549
:1031100085950E948A160C947018089590939501D5
:103120008093940108958295982F937344E0949F1F
:10313000900111248C7C86958695282B822F85758D
:10314000880F2A7A2695822B089580E090E00E94CD
:10315000BD2A21E08C3E9E4F09F020E0822F089589
:1031600082E090E00C94B52A83E090E00C94B52ABC
:10317000CF9384E090E00E94B52AC82F81E290E0CE
:103180000E94B52A2C2F30E0A901582BCA01CF91FB
:103190000895CF93C92F682F84E090E00E94C32A3E
:1031A0006C2F81E290E0CF910C94C32AAB01BC015B
:1031B0008FE090E00C94D52AAB01BC0183E190E054
:1031C0000C94D52A60E070E0CB010C94DC1860E030
:1031D00070E0CB010E94D6180C94E2186CEE7EEFE2
:1031E00080E090E00E94E12A60E082E090E00E94AE
:1031F000C32A60E083E090E00E94C32A1092E701B6
:103200001092E8011092E9011092EA0160E084E076
:1032100090E00E94C32A60E081E290E00E94C32A0D
:1032200060E085E090E00E94C32A60E086E090E0E4
:103230000E94C32A6FEF87E090E00E94C32A40E01B
:1032400050E0BA0188E090E00E94D52A60E08DE06D
:1032500090E00E94C32A40E050E0BA0188E190E08B
:103260000E94D52A60E087E190E00E94C32A40E0F6
:1032700050E0BA018CE190E00E94D52A60E080E243
:1032800090E00E94C32A40E050E0BA0188E190E05B
:103290000E94D52A0C94E7180C94EE18682F8EE043
:1032A00090E00C94C32AFC01329697E080E09150A4
:1032B00029F021912223D9F38F5FF9CF0895662356
:1032C00049F0FC01329608962191621729F0E8171F
:1032D000F907D1F780E0089581E008959C01FC0191
:1032E00032969FEF80E04191461789F09F3F19F495
:1032F000411101C0982F8F5F8630A9F79F3F39F0A9
:10330000F901E90FF11D97FDFA956283089508957B
:103310009C012A5F3F4FFC014281461301C012828B
:10332000019682179307B9F708950C946E190C94BF
:103330008819029626E0FC0111922A95E9F7089572
:1033400008950C94A0190C94A0190E94A3190E942E
:10335000050A0E94A11980E00E949F0991E0811155
:1033600001C090E0892F08950C94A0190C94B41911
:103370000E94B61980912202843049F11092F9011D
:1033800020E488E190E00FB6F894A895809360005F
:103390000FBE2093600080E00E948A070E94B61949
:1033A00083B7817F846083BF83B7816083BF789454
:1033B000889583B78E7F83BF0FB6F894A8958091C8
:1033C0006000886180936000109260000FBE0895D5
:1033D0000C94A0190E9410120E94CA0C0E948A0725
:1033E0000C94E8191F920F920FB60F9211248F932D
:1033F0009F93AF93BF938091F901811113C0809186
:10340000180290911902A0911A02B0911B024196E4
:10341000A11DB11D8093180290931902A0931A0266
:10342000B0931B02BF91AF919F918F910F900FBEF0
:103430000F901F90189582E084BD93E095BD9AEFA0
:1034400097BD80936E0008952FB7F894809118026D
:1034500090911902A0911A02B0911B022FBF0895FA
:103460002FB7F894609118027091190280911A0296
:1034700090911B022FBF08959C014FB7F894809143
:10348000180290911902A0911A02B0911B024FBF2D
:10349000821B930B089578941F920F920FB60F9290
:1034A00011248F939F93AF93BF93809118029091B3
:1034B0001902A0911A02B0911B020196A11DB11D23
:1034C0008093180290931902A0931A02B0931B02E2
:1034D000BF91AF919F918F910F900FBE0F901F9052
:1034E000189587E797E790930108809300089AE082
:1034F00088E10FB6F894A895809360000FBE909372
:103500006000FFCF0E94A518811102C00E944C19D3
:103510000E94B0188093F8010E94B81890931D0281
:1035200080931C020E94B418682F70E080E090E045
:103530000E9409166091E3017091E4018091E50118
:103540009091E6010C9441168091000280FF0BC01F
:103550006091070185E0689FB0011124759567951A
:10356000759567952BC081FF09C06091070185E0C3
:10357000689FB00111247595679520C082FF07C030
:103580006091070185E0689FB001112417C09091F8
:10359000FF019923D1F060910601961788F72091D9
:1035A000070185E0289F90011124929FA001939F1D
:1035B000500D112470E0CA010E94872A60387105FD
:1035C00040F46115710519F406C065E070E0862FBE
:1035D00008958FE7089581E008958091000280FFAB
:1035E00008C06091030170E07595679575956795C2
:1035F00021C081FF06C06091030170E07595679559
:1036000019C082FF04C06091030170E010C0909166
:10361000FE01992399F0609102019617A0F780911D
:103620000301899FC001112470E00E94872A60383D
:10363000710540F46115710519F406C061E070E090
:10364000862F08958FE7089581E00895803F21F443
:103650000E94A41A819504C0813F29F40E94A41AF3
:10366000809304020895823F21F40E94A41A819558
:1036700004C0833F29F40E94A41A80930302089592
:10368000893F19F40E94ED1A05C08A3F31F40E9467
:10369000ED1A81958093050208958B3F21F40E94D5
:1036A000ED1A819504C08C3F29F40E94ED1A809395
:1036B00006020895843F21F480910202816017C0C0
:1036C000853F21F480910202826011C0863F21F47F
:1036D0008091020284600BC0873F21F48091020236
:1036E000886005C0883F31F4809102028061809338
:1036F000020208958D3F21F48091000281600BC089
:103700008E3F21F480910002826005C08F3F29F432
:10371000809100028460809300020895803F39F414
:103720008091040287FF6AC01092040267C0813F43
:1037300029F4809104021816BCF360C09091030232
:10374000823F29F497FF5AC01092030257C0833F6B
:1037500019F41916CCF352C090910502893F31F447
:1037600019160CF04BC01092050248C08A3F19F49C
:1037700097FF44C0F8CF8B3F39F48091060287FF52
:103780003DC0109206023AC08C3F29F48091060297
:103790001816BCF333C0843F21F4809102028E7F5F
:1037A00017C0853F21F4809102028D7F11C0863FB2
:1037B00021F4809102028B7F0BC0873F21F480911E
:1037C0000202877F05C0883F31F4809102028F7E1C
:1037D0008093020213C08D3F21F4809100028E7FFE
:1037E0000BC08E3F21F4809100028D7F05C08F3F7A
:1037F00029F4809100028B7F809300028091030264
:10380000811106C080910402811102C01092FF0153
:1038100080910502811106C080910602811102C0CB
:103820001092FE0108958091F80183FF7EC080EA26
:1038300091E00E941B06809102021F928F938BE9F8
:1038400091E09F938F930E94B40689E991E00E94D2
:103850001B0680910302282F082E000C330B3F9388
:103860008F9386E991E09F938F930E94B40684E939
:1038700091E00E941B0680910402282F082E000C64
:10388000330B3F938F9381E991E09F938F930E9435
:10389000B4068FE891E00E941B0680910502282F54
:1038A000082E000C330B3F938F938CE891E09F938D
:1038B0008F930E94B4068AE891E00E941B068091D3
:1038C0000602282F082E000C330B3F938F9387E8B6
:1038D00091E09F938F930E94B40684E891E00E9448
:1038E0001B068091FF011F928F9381E891E09F93C7
:1038F0008F930E94B4068FE791E00E941B0680918F
:1039000000021F928F938CE791E09F938F930E9408
:10391000B40689E791E00E941B068DB79EB74C96CE
:103920000FB6F8949EBF0FBE8DBF0E94241A20913F
:103930000302211104C020910402222321F090935C
:10394000FD018093FC0120910502211104C020910A
:103950000602222321F09093FB018093FA0181E07B
:1039600092E00C941F0DEF92FF920F931F93CF9351
:10397000DF9300D000D000D0CDB7DEB786E0E1E025
:10398000F2E0DE01119601900D928A95E1F7E09048
:103990000302F090040200910502109106021092B9
:1039A0000302109204021092050210920602E11026
:1039B00003C0FF2009F45DC08091FC019091FD01DE
:1039C0000E943C1AAC019091FF01992339F020919B
:1039D000080130E02417350758F04BC02091090149
:1039E0008AE0289F900111242417350718F041C060
:1039F0009F3F19F09F5F9093FF01EE2061F00E94BE
:103A0000A41A1E1414F09FEF01C091E0989F902D0E
:103A1000112490930302FF2061F00E94A41A1F1446
:103A200014F09FEF01C091E0989F902D1124909386
:103A30000402309103023323E1F020910402222397
:103A4000C1F045EB3403C0011124992319F0909380
:103A5000030203C081E08093030235EB2303C0011E
:103A60001124992319F09093040203C081E08093FC
:103A70000402011103C0112309F45DC08091FA0111
:103A80009091FB010E943C1AAC019091FE01992398
:103A900039F02091040130E02417350758F04BC06D
:103AA000209105018AE0289F9001112424173507F1
:103AB00018F041C09F3F19F09F5F9093FE010023D3
:103AC00061F00E94ED1A101614F09FEF01C091E012
:103AD000989F902D112490930502112361F00E946C
:103AE000ED1A111614F09FEF01C091E0989F902DF0
:103AF000112490930602309105023323E1F02091C6
:103B000006022223C1F045EB3403C001112499239E
:103B100019F09093050203C081E08093050235EB14
:103B20002303C0011124992319F09093060203C0C6
:103B300081E0809306028091030281110BC0809185
:103B40000402811107C080910502811103C0809198
:103B5000060281110E94131CEB82FC820D831E83DE
:103B600086E0FE013196A1E0B2E001900D928A95C7
:103B7000E1F726960FB6F894DEBF0FBECDBFDF91FA
:103B8000CF911F910F91FF90EF900895E1E0F2E047
:103B900086E0DF011D928A95E9F71092FF011092ED
:103BA000FE0110920002089583EC93E00E941B0630
:103BB0001F9281E08F931F9285E08F9385E793E0BA
:103BC0009F938F930E94B4060F900F900F900F90C9
:103BD0000F900F9008958330E9F128F4813061F05F
:103BE000823009F10895853009F462C008F449C0B3
:103BF000863009F474C0089580910901262F30E0C1
:103C0000280F311D2F3F310524F4680F60930901FF
:103C100003C08FEF80930901809109011F928F9358
:103C20008EEA92E072C080910801262F30E0280FC2
:103C3000311D2F3F310524F4680F6093080103C044
:103C40008FEF80930801809108011F928F938CE978
:103C500092E05BC080910701262F30E0280F311DD4
:103C60002F3F310524F4680F6093070103C08FEFE5
:103C700080930701809107011F928F9389E892E05A
:103C800044C080910601262F30E0280F311D2F3FC0
:103C9000310524F4680F6093060103C08FEF809311
:103CA0000601809106011F928F9384E792E02DC058
:103CB00080910301262F30E0280F311D2F3F310561
:103CC00024F4680F6093030103C08FEF8093030116
:103CD000809103011F928F938BE592E016C0809133
:103CE0000201262F30E0280F311D2F3F310524F42B
:103CF000680F6093020103C08FEF809302018091EF
:103D000002011F928F9380E492E09F938F930E9411
:103D1000B4060F900F900F900F900895833081F1AB
:103D200028F4813059F08230D1F00895853009F4BB
:103D300049C0B8F1863009F456C008958091090150
:103D4000681720F4861B8093090102C010920901B4
:103D5000809109011F928F9381E392E054C080917A
:103D60000801681720F4861B8093080102C0109296
:103D70000801809108011F928F938FE192E043C068
:103D800080910701681720F4861B8093070102C009
:103D900010920701809107011F928F938CE092E0AF
:103DA00032C080910601681720F4861B80930601BB
:103DB00002C010920601809106011F928F9387EF37
:103DC00091E021C080910301681720F4861B809345
:103DD000030102C010920301809103011F928F938F
:103DE0008EED91E010C080910201681720F4861BCF
:103DF0008093020102C010920201809102011F9281
:103E00008F9383EC91E09F938F930E94B4060F9061
:103E10000F900F900F900895CF93C82F1F928F93FC
:103E200088EC94E09F938F930E94B40681E090E029
:103E3000A0E0B0E0BC01CD0104C0660F771F881F71
:103E4000991FCA95D2F70E9409160F900F900F90F4
:103E50000F90CF910C941012CF93DF938B3109F414
:103E6000EAC108F08BC18B3009F4AEC108F065C11E
:103E7000863009F4ACC120F4853009F4BAC15DC2C2
:103E8000873009F4BDC1883009F057C28FED99E041
:103E90000E941B0680E399E00E941B060E94B41852
:103EA0001F928F938DE299E09F938F930E94B406A7
:103EB0008BE299E00E941B060E94B018C82F88E18F
:103EC00099E00E941B061F92CF9383E199E09F9394
:103ED0008F930E94B40681E199E00E941B0687E05F
:103EE00099E00E941B068C2F81701F928F9384E0B3
:103EF00099E09F938F930E94B40682E099E00E941C
:103F00001B0688EF98E00E941B06C1FB882780F9FA
:103F10001F928F9385EF98E09F938F930E94B40632
:103F200083EF98E00E941B0687EE98E00E941B0634
:103F3000C2FB882780F91F928F9384EE98E09F93AD
:103F40008F930E94B40682EE98E00E941B0689EDD2
:103F500098E00E941B06C3FBCC27C0F91F92CF93A9
:103F600086ED98E09F938F930E94B40684ED98E0CD
:103F70000E941B060E94B818EC0180EC98E00E9499
:103F80001B06DF93CF938BEB98E09F938F930E9458
:103F9000B40689EB98E00E941B0680EA98E00E9434
:103FA0001B068C2F81701F928F938DE998E09F9351
:103FB0008F930E94B4068DB79EB780960FB6F89483
:103FC0009EBF0FBE8DBF8BE998E00E941B0684E860
:103FD00098E00E941B06C1FB882780F91F928F93EF
:103FE00081E898E09F938F930E94B4068FE798E052
:103FF0000E941B068DE698E00E941B068D2F8170A3
:104000001F928F938AE698E09F938F930E94B40645
:1040100088E698E00E941B0686E598E00E941B0651
:10402000D695D1701F92DF9383E598E09F938F938D
:104030000E94B40681E598E00E941B068FE398E099
:104040000E941B06C2FB882780F91F928F938CE386
:1040500098E09F938F930E94B4068AE398E00E94B1
:104060001B0688E298E00E941B06C3FB882780F9A4
:104070001F928F9385E298E09F938F930E94B406DE
:1040800083E298E00E941B0689E198E00E941B06EB
:10409000C4FB882780F91F928F9386E198E09F9355
:1040A0008F930E94B40684E198E00E941B0682E090
:1040B00098E00E941B06C5FB882780F91F928F930A
:1040C0008FEF97E09F938F930E94B4068DEF97E058
:1040D0000E941B0681EE97E00E941B06C6FB882704
:1040E00080F91F928F938EED97E09F938F930E949C
:1040F000B4068DB79EB780960FB6F8949EBF0FBEDC
:104100008DBF8CED97E00E941B0684ED97E00E9426
:104110001B06C7FBCC27C0F91F92CF9381ED97E018
:104120009F938F930E94B4068FEC97E00E941B062A
:104130000F900F900F900F9045C0803109F4A5C0EB
:1041400020F48E3009F48BC0F8C0863109F4B8C071
:10415000893109F0F2C086EF95E00E941B068FEBD3
:1041600095E00E941B0687E995E00E941B0681E608
:1041700095E00E941B0686E395E084C08A32E1F058
:1041800060F4873209F4D5C028F48E3108F4D5C024
:104190008D51D0C0893269F1D0C0833448F48A335C
:1041A00008F0C5C0853309F4C4C0883369F0C5C0C0
:1041B000833409F4BEC0C1C08EEC99E00E941B0696
:1041C0000E944C19C1E0BEC08CE296E05BC08091B9
:1041D000F801817F8E7F8093F80185E096E00E9450
:1041E0001B068AEC99E00E941B0681E0809308027E
:1041F000E9CF8EEA99E00E941B060E941E07E2CFDB
:104200008091F801C82FC095C170C0FB80F98093E0
:10421000F801CC2329F082EA99E00E941B0692C0A3
:1042200085E999E00E941B068091F801897F877FCC
:104230008093F801C7CF9091F80191FBCC27C0F98A
:1042400081E0C827892FC0FB81F98093F801CC2336
:1042500019F088E899E029C08AE799E013C09091A5
:10426000F80192FBCC27C0F981E0C827892FC0FB59
:1042700082F98093F801CC2319F08BE699E015C000
:104280008BE599E00E941B069DCF9091F80193FB6E
:10429000CC27C0F981E0C827892FC0FB83F9809320
:1042A000F801CC2351F08FE499E00E941B06809125
:1042B000F80181608093F80145C082E499E0E2CF83
:1042C00088E295E00E941B060E94CA0C1F928F9301
:1042D0008EE095E09F938F930E94B4068091140125
:1042E0001F928F9387EF94E09F938F930E94B40661
:1042F000809115021F928F9384EE94E09F938F9389
:104300000E94B4060E94301A9F938F937F936F93FD
:104310008DEC94E09F938F930E94B4068DB79EB767
:1043200042960FB6F8949EBF0FBE8DBF4BCF8953F8
:1043300001C080E00E940C1F45CF80E499E00E94FC
:104340001B06C0E08C2FDF91CF91089580E0089587
:104350000C94A6218E518A3030F4E82FF0E0E55815
:10436000FE4F8081089580E00895CF93C82F8091FB
:104370000802813059F020F0823009F445C039C17B
:104380000E94DD17823209F036C104C00E94DD1799
:10439000823261F48C2F0E94A821811104C08C2FDD
:1043A0000E942C1F2FC081E090E02CC08C2F0E9417
:1043B000A621811126C0C431E1F070F4CB3081F028
:1043C000C031D1F40E94D41D80EC94E00E941B0601
:1043D00082E08093080215C0C93259F0C83361F4F5
:1043E00085E096E00E941B0684EC94E00E941B0688
:1043F00008C01092080201C18EEB94E00E941B06D7
:10440000FCC081E08170FBC0C43228F5CE3108F0D9
:10441000C1C0CB30A1F1D0F4C73009F0D0C08EE1DB
:104420008093090182E3809308018AE08093070169
:1044300084E18093060188E08093030188E2809301
:10444000020184E693E00E941B06BCC0C33149F11F
:10445000C431C1F0B4C0CB3409F4A6C028F4C932C9
:1044600089F0C83361F0ABC0C13509F49BC0C235D7
:1044700009F496C0CE3409F0A2C06AE09BC00E9445
:10448000D41DA0C080910702882319F01092070262
:1044900099C081E793E00E941B0681E080930802A7
:1044A000AEC08BE493E00E941B0689E393E00E9478
:1044B0001B06809109011F928F9386E393E09F93DF
:1044C0008F930E94B40684E393E00E941B0682E26D
:1044D00093E00E941B06809108011F928F938FE149
:1044E00093E09F938F930E94B4068DE193E00E9426
:1044F0001B068EE093E00E941B06809107011F922D
:104500008F938BE093E09F938F930E94B40689E092
:1045100093E00E941B0688EF92E00E941B068091A8
:1045200006011F928F9385EF92E09F938F930E94D5
:10453000B40683EF92E00E941B068EED92E00E948B
:104540001B06809103011F928F938BED92E09F9346
:104550008F930E94B40689ED92E00E941B0682ECC4
:1045600092E00E941B06809102011F928F938FEBB5
:1045700092E09F938F930E94B4068DEB92E00E948D
:104580001B068DB79EB748960FB6F8949EBF0FBE18
:104590008DBF18C08C2F0E94AA218093070212C0E1
:1045A00061E003C061E006C06AE0809107020E94FA
:1045B000EB1D08C0809107020E948E1E03C082E698
:1045C00093E013C080910702882369F01F928F93B4
:1045D0008CE593E09F938F930E94B4060F900F9009
:1045E0000F900F9004C089E593E00E941B0681E0C4
:1045F00006C01092080280E002C080E003CFCF9195
:1046000008958091140208959FB7F89410920B02B8
:104610009FBF90912202943009F057C09091E90019
:104620009F703091EC00232F217030FD20E8922BF9
:1046300023E02093E9002091EB0020FF43C020916C
:10464000EE0027FF3FC020910902222321F0209194
:10465000E80025FF37C01092090226E03091E800FB
:1046600035FD15C030912202343061F53091EB00F8
:1046700035FD28C0215021F481E08093090222C039
:10468000EFE9FFE03197F1F700C00000E7CF80933A
:10469000F1008091E80085FD0AC08091E80080FF6C
:1046A000FCCF8091E8008E778093E80006C08FB73A
:1046B000F89421E020930B028FBF9F709093E90044
:1046C00080E008959F709093E9008FEF0895CF9355
:1046D000DF9300D01F92CDB7DEB7909122029430C5
:1046E00019F589837B836A8382E08093E9008FEFE9
:1046F0009091E800815095FD06C095ED9A95F1F7EF
:1047000000008111F5CF8091E80085FF0DC040E0E9
:1047100050E063E070E0CE0101960E94DE258091BA
:10472000E8008E778093E8000F900F900F90DF9154
:10473000CF910895BC0184E00C946723BC0183E011
:104740000C94672322E02093E9002FEF3091E800DA
:10475000215035FD06C035ED3A95F1F700002111E5
:10476000F5CF2091E80025FF0BC040E050E066E067
:1047700070E00E94DE258091E8008E778093E8004B
:104780000895CF93DF9321E02093E9002FEF30913C
:10479000E800215035FD06C035ED3A95F1F70000EF
:1047A0002111F5CF2091E80025FF14C0EC0140E075
:1047B00050E068E070E00E94DE258091E8008E778E
:1047C0008093E80088E0FE01ACE0B2E001900D9239
:1047D0008A95E1F7DF91CF9108958FE09AE00E94EA
:1047E0001B0680912102811109C00E946F270E943F
:1047F000CC278091E20084608093E20008958BE0F2
:104800009AE00E941B0610922102089587E09AE028
:104810000C941B0683E09AE00C941B068FEF99E042
:104820000E941B060C94EA1920910A022F5F822F26
:1048300062E30E947B2A992319F020930A020895CB
:1048400010920A0280910B02882371F1809122025A
:10485000843041F58091E9008F702091EC00922F17
:10486000917020FD90E8892B93E09093E90090915E
:10487000EB0090FF14C09091EE0097FF10C0909154
:10488000E80095FF03C01092F100F9CF9091E80085
:1048900090FF05C09091E8009E779093E8008F709C
:1048A0008093E90010920B02089542E061EC81E0F0
:1048B0000E94E82642E261EC82E00E94E82642E2A1
:1048C00061EC83E00C94E82680912402833009F4A3
:1048D00060C030F4813071F0823009F499C00895DD
:1048E0008A3009F485C08B3009F46BC0893009F037
:1048F000A7C020C080912302813A09F0A1C0809115
:10490000E800877F8093E800809127029091280239
:10491000892B21F468E08CE092E003C060E080E045
:1049200090E070E00E9429268091E8008B778093C8
:10493000E800089580912302813209F081C08091BE
:10494000270290912802029708F07AC08091E8002F
:10495000877F8093E8008091E80082FD05C0809108
:1049600022028111F8CF6CC02091F3008091F200F7
:1049700090E0922B029729F48091F1008B7F813097
:1049800021F48091F100809314028091E8008B77EC
:1049900053C080912302813A09F052C080912702CE
:1049A00090912802892B09F04BC08091E800877F05
:1049B0008093E8008091E80080FFFCCF8091140193
:1049C00036C0809123028132D9F5809127029091DF
:1049D0002802892BA9F58091E800877F8093E80061
:1049E0000E941D2780912502809314010C941012BF
:1049F00080912302813221F58091E800877F8093A6
:104A0000E8000E941D2780912602809315020895D8
:104A100080912302813AA1F48091E800877F8093FE
:104A2000E8008091E80080FFFCCF80911502809320
:104A3000F1008091E8008E778093E8000C941D27A8
:104A4000089584B7877F84BF0FB6F894A8958091A6
:104A50006000886180936000109260000FBE90E05B
:104A600080E80FB6F89480936100909361000FBEC8
:104A70000E94710D0E946F270E94CC278091E20056
:104A800084608093E20084E093E20E948E18789420
:104A90000E94602A0E94770D8AE091E00E94C50C76
:104AA0008EEE99E00E941B0680912202853089F4E7
:104AB0008AEE99E00E941B060E94B819809120029C
:104AC000882391F30E94A519882371F30E94C825B9
:104AD000EBCF0E94A70D0E94650D0E94640DE4CFEC
:104AE0000C947225292F332723303105C9F060F447
:104AF0002130310581F02230310509F041C08BE5CC
:104B000090E02BE33AE040C021323105E1F022325F
:104B1000310531F135C082E190E026E93AE034C058
:104B200099278130910549F028F0029749F5E3E192
:104B3000FAE005C0E7E3FAE002C0E3E2FAE08491BC
:104B400090E09F0121C063307105D0F4660F771F9C
:104B5000FB01E257FE4F2081318189E090E014C0D3
:104B60006330710568F4FB01EE0FFF1FE857FE4F3D
:104B700020813181FB01EB57FE4F808190E004C022
:104B800080E090E020E030E0FA0131832083089556
:104B900080E189BD82E189BD09B400FEFDCF80912D
:104BA000D8008F7D8093D8008091E0008260809350
:104BB000E0008091E00081FDFCCF0895CF92DF926C
:104BC000EF92FF920F931F93CF93DF93EC018B0132
:104BD0007A010E943C27811133C0E114F10439F0BD
:104BE000F70180819181081B190BC80FD91FC12CB7
:104BF000D12C0115110519F18091E80085FD16C031
:104C00008091E8008E778093E800E114F10449F088
:104C1000F70180819181C80ED91ED182C08285E0C2
:104C20000FC00E943C27882321F30AC089918093FA
:104C3000F10001501109FFEFCF1ADF0ADACF80E04F
:104C4000DF91CF911F910F91FF90EF90DF90CF9068
:104C500008952091290230912A022617370748F03B
:104C60006115710539F42091E8002E772093E80052
:104C700001C0B901FC0120E06115710579F1809155
:104C800022028823F1F18530F1F18091E80083FD63
:104C90003CC08091E80082FD2EC08091E80080FF3A
:104CA000EBCF2091F3008091F20090E0922B611500
:104CB000710551F08830910538F421912093F1006D
:104CC000615071090196F3CF21E0089709F020E0C7
:104CD0008091E8008E778093E800CECF2111CFCF6E
:104CE0000AC080912202882361F0853061F08091B2
:104CF000E80083FD0AC08091E80082FFF2CF80E0E7
:104D0000089582E0089583E0089581E00895209158
:104D1000290230912A022617370748F061157105DC
:104D200039F42091E8002E772093E80001C0B90102
:104D3000FC0120E06115710591F180912202882328
:104D400009F440C0853009F43FC08091E80083FD3C
:104D50003DC08091E80082FD2FC08091E80080FF77
:104D6000E9CF2091F3008091F20090E0922B611541
:104D7000710559F08830910540F424912093F10099
:104D80003196615071090196F2CF21E0089709F040
:104D900020E08091E8008E778093E800CBCF21114E
:104DA000CCCF0AC080912202882361F0853061F067
:104DB0008091E80083FD0AC08091E80082FFF2CF75
:104DC00080E0089582E0089583E0089581E00895E9
:104DD000982F973068F59093E900981739F0709103
:104DE000EC002091ED005091F00003C0242F762FAD
:104DF00050E021FD02C09F5FECCF3091EB003E7F81
:104E00003093EB003091ED003D7F3093ED00309119
:104E1000EB0031603093EB007093EC002093ED00D9
:104E20005093F0002091EE0027FDE5CF80E008953B
:104E30008F708093E90081E008958091230287FFBD
:104E400011C08091E80082FD05C08091220281118D
:104E5000F8CF11C08091E8008B770BC080912202BF
:104E6000882349F08091E80080FFF8CF8091E80026
:104E70008E778093E80008952091E4003091E5005A
:104E800095E64091EC00842F817040FF23C0809113
:104E9000E80080FD1DC080912202882399F08530B2
:104EA00099F08091EB0085FD11C04091E400509194
:104EB000E5002417350729F3915011F09A01E1CF4D
:104EC00084E0089582E0089583E0089581E00895E4
:104ED00080E008954091E80042FFDDCF08950E94F0
:104EE000DD270E94E527E0EEF0E08081816080838D
:104EF000E8EDF0E080818F77808319BCA7EDB0E00A
:104F00008C918E7F8C9380818F7E80831092210282
:104F100008950F931F93CF93DF930E94DD270E9484
:104F2000E527C8EDD0E088818F7788838881806805
:104F3000888388818F7D888319BC10922202109209
:104F40001E021092200210921F0200EE10E0F801E3
:104F500080818B7F808388818160888342E060E0EC
:104F600080E00E94E826E1EEF0E080818E7F808381
:104F7000E2EEF0E0808181608083808188608083C0
:104F8000F80180818E7F8083888180618883DF91B2
:104F9000CF911F910F910895E8EDF0E080818F7E11
:104FA0008083E7EDF0E080818160808384E082BFD0
:104FB00081E0809321020C948927E8EDF0E0808164
:104FC0008E7F80831092E20008951092DA00109292
:104FD000E10008951F920F920FB60F9211242F93A4
:104FE0003F934F935F936F937F938F939F93AF9371
:104FF000BF93EF93FF938091E10082FF0BC08091FC
:10500000E20082FF07C08091E1008B7F8093E10086
:105010000E9414248091DA0080FF1FC08091D80084
:1050200080FF1BC08091DA008E7F8093DA00809130
:10503000D90080FF0DC080E189BD82E189BD09B43E
:1050400000FEFDCF81E0809322020E94ED2305C087
:1050500019BC109222020E94FF238091E10080FF80
:1050600019C08091E20080FF15C08091E2008E7F20
:105070008093E2008091E20080618093E200809161
:10508000D80080628093D80019BC85E0809322020A
:105090000E940A248091E10084FF30C08091E200E8
:1050A00084FF2CC080E189BD82E189BD09B400FE86
:1050B000FDCF8091D8008F7D8093D8008091E10052
:1050C0008F7E8093E1008091E2008F7E8093E200EA
:1050D0008091E20081608093E20080911E0288232B
:1050E00011F084E007C08091E30087FD02C081E0F9
:1050F00001C083E0809322020E940E248091E1008F
:1051000083FF29C08091E20083FF25C08091E100E8
:10511000877F8093E10082E08093220210921E023A
:105120008091E1008E7F8093E1008091E2008E7F8C
:105130008093E2008091E20080618093E20042E08F
:1051400060E080E00E94E8268091F0008860809313
:10515000F0000E940624FF91EF91BF91AF919F91C3
:105160008F917F916F915F914F913F912F910F9010
:105170000FBE0F901F9018951F920F920FB60F92AF
:1051800011242F933F934F935F936F937F938F934C
:105190009F93AF93BF93CF93DF93EF93FF93C09110
:1051A000E900CF708091EC00D82FD17080FDD0E85D
:1051B0001092E9008091F000877F8093F00078944E
:1051C0000E9400291092E9008091F000886080938D
:1051D000F000CD2BCF70C093E900FF91EF91DF91EC
:1051E000CF91BF91AF919F918F917F916F915F917F
:1051F0004F913F912F910F900FBE0F901F901895D8
:105200001F93CF93DF93CDB7DEB7AA970FB6F8946D
:10521000DEBF0FBECDBFE3E2F2E08091F1008193EB
:1052200022E0EB32F207C9F70E9464248091E80083
:1052300083FF2EC18091230290912402492F50E0D8
:105240004A30510508F024C1FA01EC58FF4F0C9484
:105250009B2A803821F0823809F01AC108C0809159
:105260001F0290912002992389F082600FC08091E3
:1052700027028F70873008F00BC18093E90080917E
:10528000EB0085FB882780F91092E9009091E800F7
:10529000977F9093E8008093F1001092F100D1C0C5
:1052A000282F2D7F09F0F4C0882319F0823061F097
:1052B000EFC080912502813009F0EAC0933009F0F7
:1052C00080E0809320022EC08091250281112AC0A7
:1052D000809127028F702FEF280F263008F0D8C05A
:1052E0008093E9002091EB0020FF1CC0933021F453
:1052F0008091EB00806214C09091EB0090619093DC
:10530000EB0021E030E0A90102C0440F551F8A954F
:10531000E2F74093EA001092EA008091EB00886087
:105320008093EB001092E9008091E800877F8093E2
:10533000E8000E941D27ACC08111AAC0109125026F
:105340001F778091E3008078812B8093E300809128
:10535000E800877F8093E8000E941D278091E80085
:1053600080FFFCCF8091E30080688093E3001111FF
:1053700002C082E001C083E08093220289C080588D
:10538000823008F085C080912502909126028C3DE4
:1053900053E0950779F583E08A838AE289834FB7E2
:1053A000F894DE01139620E03EE051E2E32FF0E0B6
:1053B00050935700E49120FF03C0E295EF703F5FE8
:1053C000EF708E2F90E0EA3010F0C79601C0C096C3
:1053D0008D939D932F5F243149F74FBF8091E80053
:1053E000877F8093E8006AE270E0CE0101960E9418
:1053F000292616C06091270270912802AE014F5FE6
:105400005F4F0E947025BC01892B09F441C0909127
:10541000E800977F9093E80089819A810E9487260F
:105420008091E8008B778093E80032C0803881F566
:105430008091E800877F8093E80080911E0280932E
:10544000F1008091E8008E7772CF811121C08091A8
:1054500025029091260299270297D4F48091E800C2
:10546000877F8093E8008091250280931E020E942E
:105470001D2780911E02811106C08091E30087FDE7
:1054800002C081E001C084E0809322020E94552482
:105490008091E80083FF0AC08091E800877F8093B5
:1054A000E8008091EB0080628093EB00AA960FB633
:1054B000F894DEBF0FBECDBFDF91CF911F9108954D
:1054C000CF93809122028823A1F0C091E900CF7090
:1054D0009091EC00892F817090FD80E8C82B10928C
:1054E000E9008091E80083FD0E940029CF70C093FD
:1054F000E900CF910895991B79E004C0991F961790
:1055000008F0961B881F7A95C9F78095089597FB38
:10551000072E16F4009407D077FD09D00E94A12A27
:1055200007FC05D03EF4909581959F4F08957095A6
:1055300061957F4F0895EE0FFF1F0590F491E02DC8
:105540000994AA1BBB1B51E107C0AA1FBB1FA617CA
:10555000B70710F0A61BB70B881F991F5A95A9F71C
:1055600080959095BC01CD010895F999FECF92BD2B
:1055700081BDF89A992780B50895A8E1B0E042E08E
:1055800050E00C94E92A262FF999FECF92BD81BDF7
:10559000F89A019700B4021639F01FBA20BD0FB671
:1055A000F894FA9AF99A0FBE08950396272F0E944D
:1055B000C42A0E94C32A252F0E94C42A242F0C9497
:1055C000C42A0196272F0E94C42A0C94C32ADC0106
:1055D000CB01FC01F999FECF06C0F2BDE1BDF89AFE
:1055E000319600B40D9241505040B8F70895F894A8
:0255F000FFCFEB
:1055F200ED012808641E140A321E0123C123A223CE
:105602009E239A2301E200E900EA00B500B600B742
:1056120000CD008301CC008A019201940121022372
:105622000224022502260227022A02B300B4006FD6
:1056320000700081828331333236E200E900EA00F1
:10564200B500B600B700CD008301CC008A019201FB
:1056520094012102230224022502260227022A02A1
:10566200B300B4006F00700081828301020304055D
:1056720006070809004081224B0BCA0AA80A4D0AF4
:04568200660A7F0A2B
:00000001FF
